:100000000C942A000C9447000C9447000C94470071
:100010000C9447000C9447000C9447000C94470044
:100020000C9447000C9447000C9447000C94470034
:100030000C9447000C9447000C9447000C94470024
:100040000C9447000C9447000C9447000C94470014
:100050000C94470011241FBECFE5D8E0DEBFCDBF12
:1000600010E0A0E6B0E0E6EDF4E002C005900D92ED
:10007000AE36B107D9F720E0AEE6B0E001C01D9280
:10008000A437B207E1F70E9408010C9469020C94AE
:100090000000DA98DB9A2BB3982F907F2F70922B69
:1000A0009BBBECECFAE03197F1F700C00000DB9865
:1000B000ECECFAE03197F1F700C00000DB9A2BB3CB
:1000C000F0E18F9FC00111242F70282B2BBB8CECEB
:1000D0009AE00197F1F700C00000DB98ECECFAE041
:1000E0003197F1F700C0000008958FEF8ABB2CEC28
:1000F00084E891E0215080409040E1F700C083E324
:100100000E9449008CEC9AE00197F1F700C00000D2
:1001100082E30E9449008CEC9AE00197F1F700C05D
:10012000000088E20E94490088E00E94490081E0C6
:100130000E94490086E00E9449008FE00E94490029
:100140008CEC9AE00197F1F700C00000089581E07F
:100150000C944900DA9ADB9A2BB3982F907F2F707A
:10016000922B9BBBECECFAE03197F1F700C000005A
:10017000DB98ECECFAE03197F1F700C00000DB9A75
:100180002BB3F0E18F9FC00111242F70282B2BBBC4
:100190008CEC9AE00197F1F700C00000DB98E6E6EE
:1001A000F5E03197F1F7000008950E94AA0080E081
:1001B00090E0089590E4699F800D112480580C947C
:1001C00049000F931F93CF93DF9300D0CDB7DEB7D5
:1001D00049835A830E94DA004981042F5A81152FDE
:1001E000F80181918F01882361F00E94AA002FEF0E
:1001F0008FE593E0215080409040E1F700C000007F
:10020000EFCF0F900F90DF91CF911F910F91089535
:100210000E9475000E94400181E00E94470180EA2F
:100220000E944701C82F80E00E9447016C2F70E0B8
:10023000762F6627682B70936F0060936E0080E0C6
:1002400090E00E94780120E030E040EA50E40E9413
:10025000DE0120E030E040E859E30E94DE016093D7
:1002600070007093710080937200909373000E94ED
:100270004C01462F50E060E080E00E94E100CCCFCE
:1002800087B3806B87BB8DB182658DB908958FB9B7
:10029000779BFECF8FB1089570D088F09F5790F074
:1002A000B92F9927B751A0F0D1F0660F771F881F9B
:1002B000991F1AF0BA95C9F712C0B13081F077D002
:1002C000B1E0089574C0672F782F8827B85F39F0A0
:1002D000B93FCCF3869577956795B395D9F73EF4FA
:1002E00090958095709561957F4F8F4F9F4F0895A2
:1002F000E89409C097FB3EF49095809570956195C0
:100300007F4F8F4F9F4F9923A9F0F92F96E9BB2775
:100310009395F695879577956795B795F111F8CFF1
:10032000FAF4BB0F11F460FF1BC06F5F7F4F8F4F5C
:100330009F4F16C0882311F096E911C0772321F052
:100340009EE8872F762F05C0662371F096E8862FEA
:1003500070E060E02AF09A95660F771F881FDAF741
:10036000880F9695879597F9089557FD9058440FF3
:10037000551F59F05F3F71F04795880F97FB991F04
:1003800061F09F3F79F087950895121613061406C1
:10039000551FF2CF4695F1DF08C01616170618064E
:1003A000991FF1CF86957105610508940895E89429
:1003B000BB2766277727CB0197F908950BD078C024
:1003C00069D028F06ED018F0952309F05AC05FC0AC
:1003D0001124EECFCADFA0F3959FD1F3950F50E023
:1003E000551F629FF001729FBB27F00DB11D639FE7
:1003F000AA27F00DB11DAA1F649F6627B00DA11D8D
:10040000661F829F2227B00DA11D621F739FB00D32
:10041000A11D621F839FA00D611D221F749F3327A2
:10042000A00D611D231F849F600D211D822F762F3B
:100430006A2F11249F5750408AF0E1F088234AF038
:10044000EE0FFF1FBB1F661F771F881F9150504084
:10045000A9F79E3F510570F014C0AACF5F3FECF39F
:10046000983EDCF3869577956795B795F795E79570
:100470009F5FC1F7FE2B880F911D9695879597F981
:10048000089597F99F6780E870E060E008959FEF16
:1004900080EC089500240A9416161706180609061B
:1004A000089500240A9412161306140605060895EA
:1004B000092E0394000C11F4882352F0BB0F40F472
:1004C000BF2B11F460FF04C06F5F7F4F8F4F9F4FB2
:0604D0000895F894FFCF2F
:0E04D6000000000200000000D5000000000041
:00000001FF
