:100000000C94C9000C94E6000C94E6000C94E600F5
:100010000C94E6000C94E6000C94E6000C94B901F4
:100020000C94E6000C94E6000C94E6000C94E600B8
:100030000C94E6000C94CE020C94E6000C94E600BE
:100040000C94E6000C94E6000C94E6000C94E60098
:100050000C94E6006E616E00696E660000407A10D6
:10006000F35A00A0724E18090010A5D4E80000E869
:100070007648170000E40B54020000CA9A3B0000C7
:1000800000E1F505000080969800000040420F0056
:100090000000A08601000000102700000000E80317
:1000A000000000006400000000000A0000000000E2
:1000B0000100000000002C76D888DC674F0823DFA1
:1000C000C1DFAE59E1B1B796E5E3E453C63AE65174
:1000D000997696E8E6C28426EB898C9B62ED407C9B
:1000E0006FFCEFBC9C9F40F2BAA56FA5F490055A37
:1000F0002AF75C936B6CF9676DC11BFCE0E40D475C
:10010000FEF520E6B500D0ED902E0300943577057E
:100110000080841E080000204E0A000000C80C3336
:100120003333330F986E12831141EF8D2114893BC5
:10013000E65516CFFEE6DB18D1844B381BF77C1D45
:10014000901DA4BBE424203284725E228100C9F198
:1001500024ECA1E53D274E414E494E495459494EA4
:1001600046CDCCCC3D0AD7233C17B7D13877CC2B22
:10017000329595E6241FB14F0A000020410000C8C7
:100180004200401C4620BCBE4CCA1B0E5AAEC59D48
:10019000740011241FBECFE5D8E0DEBFCDBF10E054
:1001A000A0E6B0E0E0E9F7E102C005900D92A839C1
:1001B000B107D9F720E0A8E9B0E001C01D92A83B43
:1001C000B207E1F70E9421030C94C60B0C940000C7
:1001D000DA98DB9A2BB3982F907F2F70922B9BBBD2
:1001E000ECECFAE03197F1F700C00000DB98ECECA2
:1001F000FAE03197F1F700C00000DB9A2BB3F0E191
:100200008F9FC00111242F70282B2BBB8CEC9AE000
:100210000197F1F700C00000DB98ECECFAE03197B1
:10022000F1F700C0000008958FEF8ABB2CEC84E842
:1002300091E0215080409040E1F700C083E30E94AC
:10024000E8008CEC9AE00197F1F700C0000082E32F
:100250000E94E8008CEC9AE00197F1F700C00000E2
:1002600088E20E94E80088E00E94E80081E00E94A5
:10027000E80086E00E94E8008FE00E94E8008CEC35
:100280009AE00197F1F700C00000089581E00C9416
:10029000E800DA9ADB9A2BB3982F907F2F70922B7D
:1002A0009BBBECECFAE03197F1F700C00000DB9863
:1002B000ECECFAE03197F1F700C00000DB9A2BB3C9
:1002C000F0E18F9FC00111242F70282B2BBB8CECE9
:1002D0009AE00197F1F700C00000DB98E6E6F5E050
:1002E0003197F1F70000089590E4699F800D112483
:1002F00080580C94E8000F931F93CF93DF9300D0A6
:10030000CDB7DEB749835A830E9474014981042F17
:100310005A81152FF80181918F01882361F00E9485
:1003200049012FEF8FE593E0215080409040E1F7A5
:1003300000C00000EFCF0F900F90DF91CF911F9181
:100340000F9108950E94490180E090E0089578940B
:100350008EB58D608EBD89B7826189BF83EB92E0D7
:100360009BBD8ABD84B3897F84BB85B3866085BB12
:1003700008951F920F920FB60F9211240F931F939F
:100380002F933F934F935F936F937F938F939F939D
:10039000AF93BF93CF93DF93EF93FF9360E080E041
:1003A0000E947401809163008F93809162008F930B
:1003B000809161008F93809160008F9382E790E03D
:1003C0009F938F9384E690E09F938F930E94800980
:1003D0008DB79EB708960FB6F8949EBF0FBE8DBF1F
:1003E000999916C02DEC3CEC4CEC5DE360916000FB
:1003F0007091610080916200909163000E941107EA
:10040000609360007093610080936200909363003A
:100410009A9927C02DEC3CEC4CEC5DE360916000B8
:100420007091610080916200909163000E941007BA
:100430008B01D82FC92F20E030E0A9010E940308CA
:10044000181624F000E010E0D0E0C0E0A8016D2F05
:100450007C2F409360005093610060936200709322
:100460006300C49881E00E94590380EA0E94590306
:10047000C82F80E00E945903CF706C2F70E0762F58
:100480006627682B70939D0060939C0080E090E04D
:100490000E94750720E030E040EA50E40E9407081F
:1004A00020E030E040E859E30E94070860939E0096
:1004B00070939F008093A0009093A10061E080E082
:1004C0000E9474018091A1008F938091A0008F936E
:1004D00080919F008F9380919E008F938FE790E093
:1004E0009F938F9384E690E09F938F930E9480095F
:1004F000C49AC1E0D0E08DB79EB708960FB6F894C5
:100500009EBF0FBE8DBF2091600030916100409171
:1005100062005091630060919E0070919F008091F5
:10052000A0009091A1000E940308181614F0C0E0EA
:10053000D0E0D0939B00C0939A00FF91EF91DF91A0
:10054000CF91BF91AF919F918F917F916F915F916B
:100550004F913F912F911F910F910F900FBE0F90D0
:100560001F901895A09A089590BD89B988E98AB915
:100570008EE880BD08955D9BFECF8CB90895892BD0
:1005800021F4A89A8DE290E003C0A8988BE290E055
:100590000C94BB025F9BFECF8CB108951F920F920B
:1005A0000FB60F9211242F933F934F935F936F9346
:1005B0007F938F939F93AF93BF93EF93FF9380911C
:1005C0009800909199002CB1FC01EE55FF4F2083CB
:1005D0002A30F1F482EA90E00E948E08BC0188275C
:1005E00077FD8095982F0E94770760936000709345
:1005F0006100809362009093630088E70E94BB02D1
:100600008AE00E94BB02109299001092980005C0E7
:100610000196909399008093980089E70E94BB020D
:10062000FF91EF91BF91AF919F918F917F916F91CA
:100630005F914F913F912F910F900FBE0F901F90A0
:1006400018950E9414010E94520385E090E00E94D8
:10065000B4020E94A7010E94B202809163008F93AE
:10066000809162008F93809161008F9380916000F0
:100670008F938AE890E09F938F9384E690E09F9316
:100680008F930E9480098DB79EB708960FB6F89495
:100690009EBF0FBE8DBF80919A0090919B000E94DB
:1006A000BF02F9CF87B3806B87BB8DB182658DB9EF
:1006B00008958FB9779BFECF8FB10895A3E1B0E085
:1006C000E4E6F3E00C94D9067C011B016A01FC010D
:1006D00017821682838181FF66C3BE016F5F7F4FE1
:1006E0004B01F7019381F10193FD859193FF819176
:1006F0001F01882309F453C3853239F493FD859192
:1007000093FF81911F01853239F4B70190E00E9477
:10071000920956016501E5CF10E0512C20E020320E
:10072000A0F48B3269F030F4803259F0833269F4EE
:1007300020612CC08D3239F0803339F4216026C01D
:100740002260246023C0286021C027FD27C030ED2F
:10075000380F3A3078F426FF06C0FAE01F9F300DBC
:100760001124132F13C06AE0569E300D1124532E0E
:1007700020620CC08E3221F426FD11C3206406C015
:100780008C3611F4206802C0883641F4F10193FDE3
:10079000859193FF81911F018111C1CF9BEB980F30
:1007A000933018F42061805E06C09BE9980F933067
:1007B00008F0AAC12F7E26FF16E02F73722E853611
:1007C00021F4F22FF0647F2E08C0863621F4622FC8
:1007D0006068762E02C01111115077FE07C01C33DD
:1007E00048F444244394410E27E00BC0183030F401
:1007F000212F06C027E04CE3442E03C027E017E07A
:10080000412C560174E0A70EB11CF6016081718184
:1008100082819381042DA4010E9492086C010981B8
:1008200000FF02C003FF06C071FC07C072FC08C0D5
:10083000612C08C03DE2632E05C02BE2622E02C08F
:1008400090E2692E802F8C7099F1662011F084E07F
:1008500001C083E0851510F0512C0BC0581A73FCB1
:1008600008C0B70180E290E00E9492095A94C9F74B
:10087000F3CF662029F0B701862D90E00E949209FF
:1008800003FD03C008E510E002C004E510E0F72D09
:10089000F0717F2EF8018491882309F476C27110DB
:1008A0008052B70190E00E9492090F5F1F4FF2CF74
:1008B00077FE0FC04C0C04FF04C08A81813309F419
:1008C0004A94141474F5F8E0F41578F588E0482E8D
:1008D0002CC076FC2AC0812F90E08C159D059CF0E1
:1008E0006CEFC6166FEFD60674F0772D7068772E12
:1008F0000AC0E2E0F0E0EC0FFD1FE10FF11D808186
:10090000803319F411501111F4CF77FE0EC0442436
:100910004394410E812F90E0C816D9062CF41C197F
:1009200004C04424439401C010E077FE07C01C14A7
:100930001D043CF496012F5F3F4F05C025E030E0D9
:1009400002C021E030E0662011F02F5F3F4F1123FD
:1009500031F0412F50E04F5F5F4F240F351F452D81
:1009600050E02417350714F4521A01C0512C872D7A
:10097000897049F4552039F0B70180E290E00E9477
:1009800092095A94F7CF662029F0B701862D90E09E
:100990000E94920973FC09C0552039F0B70180E329
:1009A00090E00E9492095A94F7CF77FE5FC09C2D89
:1009B0008D2DD7FE02C090E080E0692E782E40E0B9
:1009C00050E0C601841991099D878C8796012619EC
:1009D0003709280D391D812F90E0EE27FF27E81BEE
:1009E000F90BFF87EE87FFEF6F167F0669F4B701FB
:1009F0008EE290E02B8B3A8B488B598B0E949209A8
:100A0000598948893A892B89C614D70454F06C85D2
:100A10007D85661577052CF4F901E40FF51F8181BA
:100A200001C080E371E0671A71084F5F5F4FEE8588
:100A3000FF856E167F066CF0B70190E02B8B3A8B2A
:100A4000488B598B0E9492092B893A894889598988
:100A5000CACF6C147D0439F49A81963318F4953317
:100A600011F404FF81E3B70190E04BC08A81813328
:100A700009F00F7EB70190E00E949209111105C0A4
:100A800074FE18C085E490E017C0B7018EE290E0D4
:100A90000E94920982E066246394680EF401E80FD4
:100AA000F11D8081B70190E00E949209115041F33D
:100AB000862DF1CF85E690E0B7010E949209D7FC20
:100AC00005C0C114D10439F404FF05C0D194C19408
:100AD000D1088DE201C08BE2B70190E00E9492093B
:100AE00080E36AE0C616D1042CF08F5FFAE0CF1ADB
:100AF000D108F7CFB70190E00E949209B701C60173
:100B0000C0960E94920941C1833631F0833779F053
:100B1000833509F058C021C0560172E0A70EB11C00
:100B2000F6018081898301E010E0640114C0560160
:100B3000F2E0AF0EB11CF601C080D18026FF03C0E9
:100B4000612F70E002C06FEF7FEFC6012B8B0E9418
:100B500075098C012B892F7715C05601F2E0AF0E75
:100B6000B11CF601C080D18026FF03C0612F70E068
:100B700002C06FEF7FEFC6012B8B0E946A098C01C8
:100B80002B892068722E23FD1AC0852D90E008174E
:100B90001907A8F4B70180E290E00E9492095A94E4
:100BA000F4CFF60177FC859177FE81916F01B70153
:100BB00090E00E94920951105A94015011090115B8
:100BC000110579F7E2C0843611F0893651F55601E6
:100BD00027FF09C0F4E0AF0EB11CF60160817181FE
:100BE000828193810AC0F2E0AF0EB11CF6016081F0
:100BF0007181882777FD8095982F022F0F7697FFB8
:100C000008C090958095709561957F4F8F4F9F4F4D
:100C100000682AE030E0A4010E94C409C82EC81868
:100C20003EC0022F853721F40F7E2AE030E01DC040
:100C3000097F8F3691F018F4883559F0B0C08037AD
:100C400019F0883711F0ABC0006104FF09C00460DF
:100C500007C024FF08C0066006C028E030E005C0D9
:100C600020E130E002C020E132E0560107FF09C078
:100C7000F4E0AF0EB11CF601608171818281938135
:100C800008C0F2E0AF0EB11CF6016081718180E016
:100C900090E0A4010E94C409C82EC8180F7706FF6F
:100CA0000BC0202F2E7FC11650F404FF0AC002FD96
:100CB00008C0202F2E7E05C0DC2C202F03C0DC2C8A
:100CC00001C0D12E24FF0DC0FE01EC0DF11D80816D
:100CD000803311F4297E09C022FF06C0D394D39437
:100CE00004C0822F867809F0D39423FD13C020FF1F
:100CF00006C01C2DD51418F4150D1D19D52CD514AE
:100D000068F4B70180E290E02B8B0E949209D394A3
:100D10002B89F5CFD51410F45D1801C0512C24FF98
:100D200012C0B70180E390E02B8B0E9492092B89BF
:100D300022FF17C021FF03C088E590E002C088E7CA
:100D400090E0B7010CC0822F867859F021FD02C0D7
:100D500080E201C08BE227FD8DE2B70190E00E94A6
:100D60009209C11638F4B70180E390E00E9492091D
:100D70001150F7CFCA94F401EC0DF11D8081B70139
:100D800090E00E949209C110F5CF552009F4C2CC21
:100D9000B70180E290E00E9492095A94F6CFF701E1
:100DA0008681978102C08FEF9FEF6396E2E10C94FA
:100DB000F5062F923F924F925F926F927F928F92A1
:100DC0009F92AF92BF92CF92DF92EF92FF920F93DA
:100DD0001F93CF93DF93CDB7DEB7CA1BDB0B0FB6E4
:100DE000F894DEBF0FBECDBF09942A8839884888A1
:100DF0005F846E847D848C849B84AA84B984C88437
:100E0000DF80EE80FD800C811B81AA81B981CE0F2D
:100E1000D11D0FB6F894DEBF0FBECDBFED01089512
:100E20005058BB27AA270ED0B4C0A5D030F0AAD006
:100E300020F031F49F3F11F41EF49AC00EF4E095B7
:100E4000E7FB90C0E92FB6D080F3BA1762077307AB
:100E50008407950718F071F49EF5CEC00EF4E09566
:100E60000B2EBA2FA02D0B01B90190010C01CA0164
:100E7000A0011124FF27591B99F0593F50F4503E0F
:100E800068F11A16F040A22F232F342F4427585F01
:100E9000F3CF469537952795A795F0405395C9F719
:100EA0007EF41F16BA0B620B730B840BBAF09150D1
:100EB000A1F0FF0FBB1F661F771F881FC2F70EC070
:100EC000BA0F621F731F841F48F487957795679543
:100ED000B795F7959E3F08F0B3CF9395880F08F02C
:100EE0009927EE0F979587950895E89409C097FB89
:100EF0003EF490958095709561957F4F8F4F9F4FF1
:100F00009923A9F0F92F96E9BB279395F695879534
:100F100077956795B795F111F8CFFAF4BB0F11F4F7
:100F200060FF1BC06F5F7F4F8F4F9F4F16C088239E
:100F300011F096E911C0772321F09EE8872F762FD4
:100F400005C0662371F096E8862F70E060E02AF015
:100F50009A95660F771F881FDAF7880F9695879501
:100F600097F9089597F99F6780E870E060E0089529
:100F70009FEF80EC089500240A94161617061806B1
:100F80000906089500240A9412161306140605068D
:100F90000895092E0394000C11F4882352F0BB0F1E
:100FA00040F4BF2B11F460FF04C06F5F7F4F8F4F81
:100FB0009F4F089557FD9058440F551F59F05F3FBC
:100FC00071F04795880F97FB991F61F09F3F79F06B
:100FD00087950895121613061406551FF2CF4695ED
:100FE000F1DF08C0161617061806991FF1CF86956F
:100FF0007105610508940895E894BB276627772753
:10100000CB0197F9089566D008F48FEF08950BD0BF
:10101000C0CFB1DF28F0B6DF18F0952309F0A2CFDA
:10102000A7CF1124EACFC6DFA0F3959FD1F3950F88
:1010300050E0551F629FF001729FBB27F00DB11D5C
:10104000639FAA27F00DB11DAA1F649F6627B00DEC
:10105000A11D661F829F2227B00DA11D621F739FD5
:10106000B00DA11D621F839FA00D611D221F749FE3
:101070003327A00D611D231F849F600D211D822F2A
:10108000762F6A2F11249F5750408AF0E1F0882371
:101090004AF0EE0FFF1FBB1F661F771F881F91507E
:1010A0005040A9F79E3F510570F05CCFA6CF5F3F3F
:1010B000ECF3983EDCF3869577956795B795F795B1
:1010C000E7959F5FC1F7FE2B880F911D9695879539
:1010D00097F90895990F0008550FAA0BE0E8FEEF65
:1010E00016161706E807F907C0F012161306E407EC
:1010F000F50798F0621B730B840B950B39F40A26E5
:1011000061F0232B242B252B21F408950A2609F4C2
:10111000A140A6958FEF811D811D08956627772731
:101120000C94220A283008F027E03327DA01990FBF
:10113000311D87FD916000966105710539F43260BB
:101140002E5F3D9330E32A95E1F708959F3F30F0FD
:1011500080387105610509F03C5F3C5F3D9391303B
:1011600008F08068911DDF93CF931F930F93FF9238
:10117000EF92192F987F9695E92F96959695E90FFE
:10118000FF27EA54FF4F99273327EE24FF24A701B6
:10119000E70105900894079428F4360FE71EF81E1F
:1011A000491F511D660F771F881F991F0694A1F7CD
:1011B0000590079428F4E70EF81E491F561FC11D1D
:1011C000770F881F991F661F0694A1F70590079453
:1011D00028F4F80E491F561FC71FD11D880F991FED
:1011E000661F771F0694A1F70590079420F4490F16
:1011F000561FC71FD81F990F661F771F881F069499
:10120000A9F784911095177041F0D695C795579519
:101210004795F794E7941A95C1F7ECE5F0E06894E8
:101220001590159135916591959105907FE2739593
:10123000E118F10A430B560BC90BD009C0F7E10CBA
:10124000F11E431F561FC91FD01D7EF4703311F4C9
:101250008A95E6CFE894015030F0080F0AF4002791
:10126000021708F4202F2395022F7A3328F079E310
:101270007D932A95E9F710C07D932A9589F6069407
:1012800097956795379517951794E118F10A430BD1
:10129000560BC90BD00998F023957E9173957A333C
:1012A00008F070E37C932013B8F77E9170617D9312
:1012B00030F0839571E37D9370E32A95E1F7112473
:1012C000EF90FF900F911F91CF91DF91992787FDAC
:1012D00090950895FC010590615070400110D8F779
:1012E000809590958E0F9F1F0895FC01615070406E
:1012F00001900110D8F7809590958E0F9F1F08954B
:10130000A0E0B0E0E6E8F9E00C94E906AE01475F42
:101310005F4F6F8178858D819E810E945E03E2E040
:101320000C9405070F931F93CF93DF93182F092F6A
:10133000EB018B8181FD03C08FEF9FEF20C082FF07
:1013400010C04E815F812C813D81421753077CF490
:10135000E881F9819F012F5F3F4F398328831083F4
:1013600006C0E885F985812F0995892B29F72E81FB
:101370003F812F5F3F4F3F832E83812F902FDF913F
:10138000CF911F910F910895FA01AA27283051F1AA
:10139000203181F1E8946F936E7F6E5F7F4F8F4FA6
:1013A0009F4FAF4FB1E03ED0B4E03CD0670F781F05
:1013B000891F9A1FA11D680F791F8A1F911DA11DEA
:1013C0006A0F711D811D911DA11D20D009F4689423
:1013D0003F912AE0269F11243019305D3193DEF6CB
:1013E000CF010895462F4770405D4193B3E00FD081
:1013F000C9F7F6CF462F4F70405D4A3318F0495D6C
:1014000031FD4052419302D0A9F7EACFB4E0A6954E
:101410009795879577956795BA95C9F70097610570
:10142000710508959B01AC010A2E069457954795C6
:1014300037952795BA95C9F7620F731F841F951FBB
:10144000A01D0895A0E0B0E0E8E2FAE00C94DF0609
:101450008B016115710521F0DB018C9311969C9332
:10146000EC015E01BFEFAB1ABB0A7501C8808C2D81
:1014700090E00E94850B892B11F0E501F2CFEDE29F
:10148000CE1208C07E01F2E0EF0EF11CC980DD240F
:10149000D39409C02BE2C21205C07E0142E0E40EE3
:1014A000F11CC980D12CE701219743E050E06EE5A3
:1014B00071E0CE010E948D0B892BC1F4239645E08B
:1014C00050E069E571E0CE010E948D0B892B09F493
:1014D00025960115110519F0D801CD93DC93D11093
:1014E00006C160E070E080E89FE70AC143E050E099
:1014F00066E571E0CE010E948D0B892B59F4011530
:10150000110509F4F9C0B2E0EB0EF11CF801F1820B
:10151000E082F2C0F70160E070E0CB01C0E0D0E013
:101520007F01A0EDAA2EAC0C29E02A1530F14D2D3B
:101530004260B42E2D2D2870D2FE04C0211125C08A
:10154000219623C021112197A5E0B0E09B01AC01B9
:101550000E94AC0B660F771F881F991F6A0D711DC3
:10156000811D911D6839A9E97A078A07A9E19A07BF
:1015700060F0BD2DB660BB2E08C02EEFA2120AC0CF
:10158000D3FC50C04D2D4860B42E3196D701CC907D
:10159000DB2CC6CF2C2D2F7D253409F043C0A08134
:1015A000AD3241F4BD2DB061DB2E7F0122E0E20EB1
:1015B000F11C0CC07F01AB3231F04FEFE41AF40A9A
:1015C00021E030E006C0A2E0EA0EF11CA18122E099
:1015D00030E0A053AA3018F0E21AF30A23C0F70152
:1015E00020E030E02038BCE03B075CF4A901440F68
:1015F000551F440F551F240F351F220F331F2A0F6D
:10160000311DAF014F5F5F4F7A01A081A053AA3017
:1016100010F4FA01E7CFD4FE03C0319521953109CA
:10162000C20FD31FD1FE09C00115110531F0E1E051
:10163000EE1AF108D801ED92FC920E9475072D2D4B
:101640002370233019F04B015C0106C04B015C0193
:10165000B7FAB094B7F8B09420E030E0A901C50122
:10166000B4010E94A50B882309F43EC0D7FF06C031
:10167000D195C195D10905E711E002C00DE811E04F
:101680006801B8E1CB1AD10890E2E92EF12CCE1511
:10169000DF0574F0F8012591359145915491C5010C
:1016A000B4010E9407084B015C01CE19DF09EFCF9E
:1016B00004501109F594E7940C151D0541F78A2D86
:1016C000880F8B2D881F8F3F49F020E030E0A90163
:1016D000C501B4010E94A50B811106C082E290E011
:1016E0009093B7008093B600C501B40109C060E0D3
:1016F00070E080E89FEF04C060E070E080EC9FE75E
:10170000CDB7DEB7ECE00C94FB06911122C080321D
:1017100019F089508550D0F70895FB01DC01415044
:10172000504088F08D9181341CF08B350CF4805E34
:10173000659161341CF06B350CF4605E861B6111A1
:1017400071F3990B0895881BFCCFC4DC08F481E089
:1017500008959927882708950E94B70BA59F900D9B
:10176000B49F900DA49F800D911D11240895A29FF8
:10177000B001B39FC001A39F700D811D1124911D65
:10178000B29F700D811D1124911D0895F894FFCF13
:101790009A99993E0000000200000000A20100009A
:1017A0000000765F70726F673A20252E33660076F0
:1017B0005F61643A20252E3366006C69637A62614A
:0817C0003A20252E33660000DB
:00000001FF
