:100000000C942A000C9434000C9434000C943400AA
:100010000C9434000C9434000C9434000C94340090
:100020000C9434000C9434000C9434000C94340080
:100030000C9434000C9434000C9434000C94340070
:100040000C9434000C9434000C9434000C94340060
:100050000C94340011241FBECFE5D8E0DEBFCDBF25
:100060000E9445000C9456000C94000020E030E003
:100070002817390749F0ECECFAE03197F1F700C0A6
:1000800000002F5F3F4FF4CF08958FEF84BB88E6C9
:1000900085BBC8E6D7E988EE93E00E943600C5BB71
:1000A00088EE93E00E943600D5BBF5CFF894FFCFE1
:00000001FF
