:100000000C942A000C9434000C9434000C943400AA
:100010000C9434000C9434000C9434000C94340090
:100020000C9434000C9434000C9434000C94340080
:100030000C9434000C9434000C9434000C94340070
:100040000C9434000C9434000C9434000C94340060
:100050000C94340011241FBECFE5D8E0DEBFCDBF25
:100060000E9445000C949E000C94000020E030E0BB
:100070002817390749F0ECECFAE03197F1F700C0A6
:1000800000002F5F3F4FF4CF08958FEF84BB11BA6C
:1000900082BBDD24D394CAE0D0E0E12C43E0F42E0F
:1000A00002E310E080990AC084E690E00E943600E6
:1000B000809904C0E3948E2D8170E82E819906C04A
:1000C000CE010296B8010E948A00EC0182990AC012
:1000D00084E690E00E943600829904C0D3948D2D6E
:1000E0008170D82EEE20F1F28F2D90E0DD2031F0DE
:1000F000880F991FF694F694F69406C023E0880FB3
:10010000991F2A95E1F7F694F82AF5BACE010E94D4
:100110003600C8CFAA1BBB1B51E107C0AA1FBB1FDB
:10012000A617B70710F0A61BB70B881F991F5A9583
:10013000A9F780959095BC01CD010895F894FFCF63
:00000001FF
