:100000000C942A000C9458000C9447000C94470060
:100010000C9447000C9447000C9447000C94470044
:100020000C9447000C9447000C9447000C94470034
:100030000C9447000C9476000C9447000C944700F5
:100040000C9447000C9447000C9447000C94470014
:100050000C94470011241FBECFE5D8E0DEBFCDBF12
:1000600010E0A0E6B0E0E0EFF1E002C005900D92F4
:10007000A836B107D9F720E0A8E6B0E001C01D928C
:10008000A038B207E1F70E94D7000C94F6000C9458
:10009000000090BD89B988E98AB98EE880BD0895CD
:1000A0005D9BFECF8CB908955F9BFECF8CB1089508
:1000B0001F920F920FB60F9211242F933F938F939D
:1000C0009F9381E090E020916A0030916B00821B49
:1000D000930B90936B0080936A009F918F913F9157
:1000E0002F910F900FBE0F901F9018951F920F9297
:1000F0000FB60F9211242F933F934F935F936F93FB
:100100007F938F939F93AF93BF93EF93FF938091D0
:100110006800909169002CB1FC01E459FF4F2083E5
:100120002A3079F543E050E060E670E08CE690E03C
:100130000E94E800892B51F48DE20E9450008AE071
:100140000E94500010926B0010926A0042E050E052
:1001500064E670E08CE690E00E94E800892B61F490
:100160008BE20E9450008AE00E94500081E090E003
:1001700090936B0080936A0010926900109268005F
:1001800005C001969093690080936800FF91EF91FC
:10019000BF91AF919F918F917F916F915F914F919F
:1001A0003F912F910F900FBE0F901F90189578944C
:1001B000A09AA19885E090E00E94490080916A0091
:1001C00090916B00892B11F0A898F8CFA89AF6CFE0
:1001D000FB01DC014150504030F08D9101908019BD
:1001E00019F40020B9F7881B990B0895F894FFCFF4
:0801F0006F6666006F6E0000EF
:00000001FF
