:100000000C942A000C9447000C9447000C94470071
:100010000C9447000C9447000C9447000C94AC00DF
:100020000C9447000C9447000C9449000C94470032
:100030000C9447000C9447000C9447000C94470024
:100040000C9447000C9447000C9447000C94470014
:100050000C94470011241FBECFE5D8E0DEBFCDBF12
:1000600010E0A0E6B0E0EAE3F2E002C005900D92F5
:10007000AC36B107D9F720E0ACE6B0E001C01D9284
:10008000A437B207E1F70E9404010C941B010C9401
:1000900000001F920F920FB60F9211248F939F931F
:1000A000EF93FF9380916A0090916B0001968830E6
:1000B000910511F484E090E090936B0080936A00C6
:1000C00081E090E000906A0002C0880F991F0A94B6
:1000D000E2F780958BBB80916A0090916B0004974A
:1000E00041F4E0917200F0917300E05AFF4F80817B
:1000F00085BB80916A0090916B00059741F4E09177
:100100007000F0917100E05AFF4F808185BB8091B3
:100110006A0090916B00069741F4E0916E00F091B7
:100120006F00E05AFF4F808185BB80916A009091FB
:100130006B00079741F4E0916C00F0916D00E05A7C
:10014000FF4F808185BBFF91EF919F918F910F9021
:100150000FBE0F901F9018951F920F920FB60F921F
:1001600011248F939F938091720090917300019658
:100170008A3091052CF490937300809372000DC027
:100180001092730010927200809170009091710033
:10019000019690937100809370008091700090910F
:1001A00071000A976CF010927100109270008091AB
:1001B0006E0090916F00019690936F0080936E0097
:1001C00080916E0090916F000A976CF010926F0012
:1001D00010926E0080916C0090916D00019690934A
:1001E0006D0080936C0080916C0090916D000A9777
:1001F00024F010926D0010926C009F918F910F90DF
:100200000FBE0F901F9018958FEF84BB8ABB789418
:1002100083B78B6083BF83B78F7B83BF8EB58D60C1
:100220008EBD89B7826189BF8AE090E09BBD8ABD9F
:0A02300085E38CBFFFCFF894FFCFE9
:0C023A00C0F9A4B0999282F880900400F2
:00000001FF
