:100000000C942A000C943F000C943F000C943F0089
:100010000C943F000C943F000C943F000C943F0064
:100020000C943F000C943F000C943F000C943F0054
:100030000C943F000C943F000C943F000C943F0044
:100040000C943F000C943F000C943F000C943F0034
:100050000C943F0011241FBECFE5D8E0DEBFCDBF1A
:1000600010E0A0E6B0E0E8E8F2E002C005900D92F2
:10007000AE36B107D9F70E9400010C9442010C94EE
:100080000000DA98DB9A2BB3982F907F2F70922B79
:100090009BBBECECFAE03197F1F700C00000DB9875
:1000A000ECECFAE03197F1F700C00000DB9A2BB3DB
:1000B000F0E18F9FC00111242F70282B2BBB8CECFB
:1000C0009AE00197F1F700C00000DB98ECECFAE051
:1000D0003197F1F700C0000008958FEF8ABB2CEC38
:1000E00084E891E0215080409040E1F700C083E334
:1000F0000E9441008CEC9AE00197F1F700C00000EB
:1001000082E30E9441008CEC9AE00197F1F700C075
:10011000000088E20E94410088E00E94410081E0E6
:100120000E94410086E00E9441008FE00E94410051
:100130008CEC9AE00197F1F700C00000089581E08F
:100140000C944100DA9ADB9A2BB3982F907F2F7092
:10015000922B9BBBECECFAE03197F1F700C000006A
:10016000DB98ECECFAE03197F1F700C00000DB9A85
:100170002BB3F0E18F9FC00111242F70282B2BBBD4
:100180008CEC9AE00197F1F700C00000DB98E6E6FE
:10019000F5E03197F1F7000008950E94A20080E099
:1001A00090E0089590E4699F800D112480580C948C
:1001B00041000F931F93CF93DF9300D0CDB7DEB7ED
:1001C00049835A830E94D2004981042F5A81152FF6
:1001D000F80181918F01882361F00E94A2002FEF26
:1001E0008FE593E0215080409040E1F700C000008F
:1001F000EFCF0F900F90DF91CF911F910F91089546
:100200000E946D0080E40E94410080E00E94A200F4
:1002100082E10E94A2008AE00E94A20080E00E9487
:10022000A20080E00E94A20081E10E94A2008EE074
:100230000E94A20080E00E94A20080E80E9441008B
:1002400080E00E94A20081E40E9441008AE00E94B6
:10025000A2002FEF8FEB91E2215080409040E1F718
:1002600000C0000081E40E94410082E10E94A200DF
:100270002FEF8FEB91E2215080409040E1F700C0DA
:080280000000E1CFF894FFCF6C
:0E0288000000000200000000CD000000000099
:00000001FF
