:100000000C942A000C943F000C943F000C943F0089
:100010000C943F000C943F000C943F000C943F0064
:100020000C943F000C943F000C943F000C943F0054
:100030000C943F000C943F000C943F000C943F0044
:100040000C943F000C943F000C943F000C943F0034
:100050000C943F0011241FBECFE5D8E0DEBFCDBF1A
:1000600010E0A0E6B0E0ECEFF1E002C005900D92E8
:10007000A238B107D9F70E94F3000C94FC000C944D
:100080000000DA98DB9A2BB3982F907F2F70922B79
:100090009BBBECECFAE03197F1F700C00000DB9875
:1000A000ECECFAE03197F1F700C00000DB9A2BB3DB
:1000B000F0E18F9FC00111242F70282B2BBB8CECFB
:1000C0009AE00197F1F700C00000DB98ECECFAE051
:1000D0003197F1F700C0000008958FEF8ABB2CEC38
:1000E00084E891E0215080409040E1F700C083E334
:1000F0000E9441008CEC9AE00197F1F700C00000EB
:1001000082E30E9441008CEC9AE00197F1F700C075
:10011000000088E20E94410088E00E94410081E0E6
:100120000E94410086E00E9441008FE00E94410051
:100130008CEC9AE00197F1F700C00000089581E08F
:100140000C944100DA9ADB9A2BB3982F907F2F7092
:10015000922B9BBBECECFAE03197F1F700C000006A
:10016000DB98ECECFAE03197F1F700C00000DB9A85
:100170002BB3F0E18F9FC00111242F70282B2BBBD4
:100180008CEC9AE00197F1F700C00000DB98E6E6FE
:10019000F5E03197F1F70000089590E4899F600D34
:1001A000112480E8860F0C9441000F931F93CF9386
:1001B000DF9300D0CDB7DEB749835A830E94CD00CC
:1001C0004981042F5A81152FF80181918F018823CD
:1001D00019F00E94A200F8CF0F900F90DF91CF91FD
:1001E0001F910F9108950E946D0040E650E060E07D
:0C01F00080E00E94D500FFCFF894FFCF04
:1001FC006B6F6E7374616E74796E6F706F6C697403
:10020C00616E637A796B6F7769616E65637A6B6126
:02021C000000E0
:00000001FF
