:100000000C942A000C9434000C9434000C943400AA
:100010000C9434000C9434000C9434000C94340090
:100020000C9434000C9434000C9434000C94340080
:100030000C9434000C9434000C9434000C94340070
:100040000C9434000C9434000C9434000C94340060
:100050000C94340011241FBECFE5D8E0DEBFCDBF25
:100060000E94BE000C94C1000C940000DA98DB9A48
:100070002BB3982F907F2F70922B9BBBECECFAE068
:100080003197F1F700C00000DB98ECECFAE0319713
:10009000F1F700C00000DB9A2BB3F0E18F9FC001A5
:1000A00011242F70282B2BBB8CEC9AE00197F1F7D1
:1000B00000C00000DB98ECECFAE03197F1F700C0EB
:1000C000000008952CEC84E891E02150804090409D
:1000D000E1F700C083E00E9436008FEF95E30197BF
:1000E000F1F700C0000083E00E9436008FEF95E337
:1000F0000197F1F700C0000083E00E9436008FEF07
:1001000095E30197F1F700C0000082E00E943600FD
:100110008CEC9AE00197F1F700C000000895089573
:10012000DA9ADB9A2BB3982F907F2F70922B9BBB80
:10013000ECECFAE03197F1F700C00000DB98ECEC52
:10014000FAE03197F1F700C00000DB9A2BB3F0E141
:100150008F9FC00111242F70282B2BBB8CEC9AE0B1
:100160000197F1F700C00000DB98ECECFAE0319762
:10017000F1F700C0000008950895089580E090E030
:060180000895F894FFCF82
:00000001FF
