:100000000C942A000C943F000C943F000C943F0089
:100010000C943F000C943F000C943F000C943F0064
:100020000C943F000C943F000C943F000C943F0054
:100030000C943F000C943F000C943F000C943F0044
:100040000C943F000C943F000C943F000C943F0034
:100050000C943F0011241FBECFE5D8E0DEBFCDBF1A
:1000600010E0A0E6B0E0E0E5F2E002C005900D92FD
:10007000A238B107D9F70E941D010C9426010C94F7
:100080000000DA98DB9A2BB3982F907F2F70922B79
:100090009BBBECECFAE03197F1F700C00000DB9875
:1000A000ECECFAE03197F1F700C00000DB9A2BB3DB
:1000B000F0E18F9FC00111242F70282B2BBB8CECFB
:1000C0009AE00197F1F700C00000DB98ECECFAE051
:1000D0003197F1F700C0000008958FEF8ABB2CEC38
:1000E00084E891E0215080409040E1F700C083E334
:1000F0000E9441008CEC9AE00197F1F700C00000EB
:1001000082E30E9441008CEC9AE00197F1F700C075
:10011000000088E20E9441008AE00E94410081E0E4
:100120000E94410086E00E9441008FE00E94410051
:100130008CEC9AE00197F1F700C00000089581E08F
:100140000C944100DA9ADB9A2BB3982F907F2F7092
:10015000922B9BBBECECFAE03197F1F700C000006A
:10016000DB98ECECFAE03197F1F700C00000DB9A85
:100170002BB3F0E18F9FC00111242F70282B2BBBD4
:100180008CEC9AE00197F1F700C00000DB98E6E6FE
:10019000F5E03197F1F70000089590E4699F800D34
:1001A000112480580C944100AF92BF92CF92DF92FD
:1001B000EF92FF920F931F93CF93DF9300D0CDB7B1
:1001C000DEB7062F10E0E82EF12C49835A830E94F7
:1001D000CD004981A42E5A81B52ECC24C394D12CB4
:1001E000F50181915F018823D9F00E94A2000F5F81
:1001F0001F4F0031110551F4C6018E199F097C0172
:10020000682F80E00E94CD0000E010E09FEFEFE556
:10021000F3E09150E040F040E1F700C00000E0CF93
:100220000F900F90DF91CF911F910F91FF90EF9062
:10023000DF90CF90BF90AF9008950E946D0040E690
:1002400050E060E080E00E94D400FFCFF894FFCF40
:100250006B6F6E7374616E74796E6F706F6C6974AE
:10026000616E637A796B6F7769616E65637A6B61D2
:0202700000008C
:00000001FF
