:100000000C942A000C943C000C943C000C943C0092
:100010000C943C000C943C000C943C000C943C0070
:100020000C943C000C943C000C943C000C943C0060
:100030000C943C000C94A0000C943C000C943C00EC
:100040000C943C000C943C000C943C000C943C0040
:100050000C943C0011241FBECFE5D8E0DEBFCDBF1D
:1000600020E0A0E6B0E001C01D92A637B207E1F79C
:100070000E940D010C9424030C94000020E030E059
:100080002817390749F0ECECFAE03197F1F700C096
:1000900000002F5F3F4FF4CF08958FB582688FBD6A
:1000A0008FB58E7B8FBD8EB58A618EBD8EB58A7FF2
:1000B0008EBD8FEF9BE697BD86BD8D9A089520E09B
:1000C0003EEF47ED56E40E949B0220E030E040EA1C
:1000D00051E40E9474010E94DC01CB01089520E0EC
:1000E00030E044EB52E40E94740129E939E949E91E
:1000F0005FE30E949B0226E636E646E65FE30E9447
:10010000100120E03EEF47ED56E40E949B0220E004
:1001100030E040EA51E40E9474010E94DC01CB010E
:10012000089590BD89B988E98AB98EE880BD08959F
:100130005D9BFECF8CB908955F9BFECF8CB1089577
:100140001F920F920FB60F9211242F933F934F934C
:100150005F936F937F938F939F93AF93BF93EF932F
:10016000FF9380916000909161002CB1FC01EE59E9
:10017000FF4F20832A30D1F482E690E00E94FE02F5
:10018000BC01882777FD8095982F0E940F020E945E
:100190006F009BBD8ABD8DE20E9498008AE00E949C
:1001A0009800109261001092600005C00196909333
:1001B000610080936000FF91EF91BF91AF919F919B
:1001C0008F917F916F915F914F913F912F910F9000
:1001D0000FBE0F901F9018950E944D000CED14E07B
:1001E000C6E5DBE01BBD0ABD88EE93E00E943E0041
:1001F000DBBDCABD88EE93E00E943E00F3CF0E94B3
:100200004D007894899A889885E090E00E9491004A
:10021000FFCF0E944D00889AFFCF0E94FF005058E8
:10022000BB27AA270ED04DC13ED130F043D120F0DC
:1002300031F49F3F11F41EF433C10EF4E095E7FB57
:1002400029C1E92F4FD180F3BA17620773078407DA
:10025000950718F071F49EF567C10EF4E0950B2E2A
:10026000BA2FA02D0B01B90190010C01CA01A00108
:100270001124FF27591B99F0593F50F4503E68F163
:100280001A16F040A22F232F342F4427585FF3CFA4
:10029000469537952795A795F0405395C9F77EF475
:1002A0001F16BA0B620B730B840BBAF09150A1F0BE
:1002B000FF0FBB1F661F771F881FC2F70EC0BA0F44
:1002C000621F731F841F48F4879577956795B795CC
:1002D000F7959E3F08F0B3CF9395880F08F09927C4
:1002E000EE0F9795879508950CD0EBC0E3D040F0C2
:1002F000DAD030F021F45F3F19F0CCC0511115C1B4
:10030000CFC0F0D098F39923C9F35523B1F3951BCF
:10031000550BBB27AA2762177307840738F09F5F26
:100320005F4F220F331F441FAA1FA9F333D00E2E95
:100330003AF0E0E830D091505040E695001CCAF702
:1003400029D0FE2F27D0660F771F881FBB1F2617C7
:1003500037074807AB07B0E809F0BB0B802DBF019A
:10036000FF2793585F4F2AF09E3F510568F092C0D7
:10037000DCC05F3FECF3983EDCF38695779567959C
:10038000B795F7959F5FC9F7880F911D969587954B
:1003900097F90895E1E0660F771F881FBB1F62176A
:1003A00073078407BA0720F0621B730B840BBA0B28
:1003B000EE1F88F7E095089504D06894B111B5C098
:1003C000089598D088F09F5790F0B92F9927B7518A
:1003D000A0F0D1F0660F771F881F991F1AF0BA9509
:1003E000C9F712C0B13081F09FD0B1E008959CC030
:1003F000672F782F8827B85F39F0B93FCCF38695FF
:1004000077956795B395D9F73EF49095809570955B
:1004100061957F4F8F4F9F4F0895E89409C097FBD8
:100420003EF490958095709561957F4F8F4F9F4FCB
:100430009923A9F0F92F96E9BB279395F69587950F
:1004400077956795B795F111F8CFFAF4BB0F11F4D2
:1004500060FF1BC06F5F7F4F8F4F9F4F16C0882379
:1004600011F096E911C0772321F09EE8872F762FAF
:1004700005C0662371F096E8862F70E060E02AF0F0
:100480009A95660F771F881FDAF7880F96958795DC
:1004900097F9089597F99F6780E870E060E0089504
:1004A0009FEF80EC089500240A941616170618068C
:1004B0000906089500240A94121613061406050668
:1004C0000895092E0394000C11F4882352F0BB0FF9
:1004D00040F4BF2B11F460FF04C06F5F7F4F8F4F5C
:1004E0009F4F089557FD9058440F551F59F05F3F97
:1004F00071F04795880F97FB991F61F09F3F79F046
:1005000087950895121613061406551FF2CF4695C7
:10051000F1DF08C0161617061806991FF1CF869549
:100520007105610508940895E894BB27662777272D
:10053000CB0197F908950BD0C4CFB5DF28F0BADF0F
:1005400018F0952309F0A6CFABCF1124EECFCADF68
:10055000A0F3959FD1F3950F50E0551F629FF001D6
:10056000729FBB27F00DB11D639FAA27F00DB11D2F
:10057000AA1F649F6627B00DA11D661F829F2227B8
:10058000B00DA11D621F739FB00DA11D621F839F3F
:10059000A00D611D221F749F3327A00D611D231F15
:1005A000849F600D211D822F762F6A2F11249F5763
:1005B00050408AF0E1F088234AF0EE0FFF1FBB1F86
:1005C000661F771F881F91505040A9F79E3F510525
:1005D00070F060CFAACF5F3FECF3983EDCF38695D6
:1005E00077956795B795F795E7959F5FC1F7FE2BD0
:1005F000880F911D9695879597F90895FC01882796
:100600009927E89421912032E9F3293010F02E3017
:10061000C8F32B3241F02D3239F4689404C00E94A3
:100620001C03820F911D219120532A30C0F31EF428
:10063000909581959F4F08957AE0979F902D879F81
:0C064000802D910D11240895F894FFCF37
:00000001FF
